:1000000000080020B5060000490700006107000055
:100010007907000091070000A9070000C107000050
:10002000C1070000C1070000C1070000C1070000B0
:10003000C1070000C1070000C1070000F103000074
:1000400000000000000000000000000000000000B0
:1000500000000000000000000000000000000000A0
:100060000000000000000000000000000000000090
:100070000000000000000000000000000000000080
:100080000000000000000000000000000000000070
:100090000000000000000000000000000000000060
:1000A0000000000000000000000000000000000050
:1000B0000000000000000000000000000000000040
:1000C0000000000000000000000000000000000030
:1000D0000000000000000000000000000000000020
:1000E0000000000000000000000000000000000010
:1000F0000000000000000000000000000000000000
:1001000000080020B5060000490700006107000054
:100110007907000091070000A9070000C10700004F
:10012000C1070000C1070000C1070000C1070000AF
:10013000C1070000C1070000C1070000F103000073
:10014000C1070000C1070000C1070000C10700008F
:10015000C1070000C1070000C1070000C10700007F
:10016000C1070000C1070000C1070000C10700006F
:10017000C1070000C1070000C1070000C10700005F
:10036C0008B5154BD3F8082642F02002C3F808262E
:10037C00DA6E42F02002DA66A3F52123D3F80024CA
:10038C0042F00E02C3F80024D3F81C2542F00E02F2
:10039C00C3F81C254FF0E023084A5A6100229A61E9
:1003AC0007221A6100F01EF862B6054B08210022E4
:1003BC0019621A62FCE700BF00E00F40FF117A00DF
:1003CC0000D00540BFF34F8F0449CA6802F4E062C5
:1003DC00034B1343CB60BFF34F8FFEE700ED00E000
:1003EC000400FA05024A136983F004031361704791
:1003FC0000D005407B4A136E126F002A15DB13F4F4
:10040C00006F00F0D580C3F30112022A00F0C980FE
:10041C00032A00F0C880002A7DD0734A73490A6011
:10042C0013F4800F40F0CB80704712F4006F62D051
:10043C00C2F30211022956D0032956D069B16A4978
:10044C006A48016013F4800F54D0C2F3C5520132D4
:10045C00B1FBF2F2654B1A607047C3F38311162996
:10046C0046D8DFE801F00C0E111316181B1D2023C3
:10047C002527292B2E30333537393B453D005C4938
:10048C00DEE74FF4E111DBE75A49D9E74FF41611D7
:10049C00D6E75949D4E74FF46111D1E75749CFE773
:1004AC004FF47A11CCE74FF49601C9E75449C7E7EA
:1004BC005449C5E75449C3E75449C1E74FF4E10136
:1004CC00BEE75349BCE74FF4FA01B9E75149B7E726
:1004DC005149B5E75149B3E75149B1E75149AFE744
:1004EC004FF47A01ACE74549AAE747F23051A7E748
:1004FC003D49A5E770473D494B48086013F4800F10
:10050C006ED0C2F3C5520132474BB3FBF2F2520824
:10051C00364B1A607047C3F38412162A46D8DFE8AC
:10052C0002F00C0E111316181B1D20232527292B46
:10053C002E30333537393B453D002D4A6EE74FF4AD
:10054C00E1126BE72B4A69E74FF4161266E72A4A69
:10055C0064E74FF4611261E7284A5FE74FF47A12BF
:10056C005CE74FF4960259E7254A57E7254A55E7C9
:10057C00254A53E7254A51E74FF4E1024EE7244A56
:10058C004CE74FF4FA0249E7224A47E7224A45E78B
:10059C00224A43E7224A41E7224A3FE74FF47A02D4
:1005AC003CE7164A3AE747F2305237E70E4A35E74E
:1005BC000E4A1D49116013F4800F08D17047C3F324
:1005CC00C3530133B2FBF3F2084B1A607047C3F309
:1005DC00C3530133144AB2FBF3F35B08034A1360B1
:1005EC00704700BF00E00F400024F400000800201A
:1005FC0040420F0080841E00999E360000093D0089
:10060C00404B4C0000204E00808D5B0000C05D0014
:10061C0000127A0080969800001BB7000080BB0087
:10062C00C0E8CE00647ADA000084D717174B184A5A
:10063C001A6702F5612202F2C1221A66A2F1BE62A9
:10064C00A2F68F521A66134A1A674FF47A73013B5B
:10065C00FDD10E4B104A1A66104A1A674FF47A7382
:10066C00013BFDD1094B0E4A1A661A46136D13F065
:10067C00400FFBD0054B0B4A1A664FF0C0721A673D
:10068C0042F21073013BFDD1704700BF00E00F40F8
:10069C001028800700288001420D9E01000880016F
:1006AC00420DDE014205DE014FF0E023194AC3F88A
:1006BC00082DFFF7BBFF184A184B9A420DD2184A67
:1006CC00154B1848C01A20F003000430184452F897
:1006DC00041B43F8041B8342F9D1134A134B9A426F
:1006EC000BD21346124AD21A22F0030204321A44D5
:1006FC00002143F8041B9342FBD10E4B33B1AFF3F3
:10070C00008072B601210C48FFF75CFEFFF728FE53
:10071C00F7E700BF000100000008002004080020DB
:10072C00240800000308002004080020040800200E
:10073C000308002000000000D8070000034B72B62D
:10074C009D4601210248FFF73DFE00BF0008002036
:10075C00E8070000034B72B69D4601210248FFF7E3
:10076C0031FE00BF00080020EC070000034B72B6FE
:10077C009D4601210248FFF725FE00BF000800201E
:10078C00F8070000034B72B69D4601210248FFF7A3
:10079C0019FE00BF0008002004080000034B72B6CD
:1007AC009D4601210248FFF70DFE00BF0008002006
:1007BC0010080000034B72B69D4601210248FFF75A
:1007CC0001FE00BF000800201C0800005265736584
:1007DC00745F48616E646C65720000004E4D490098
:1007EC00486172644661756C740000004D656D4D16
:1007FC00616E6167650000004275734661756C74CB
:10080C000000000055736167654661756C740000EB
:08081C0044656661756C74000F
:0408240080F0FA0264
:04000003000006B53E
:00000001FF
